{
  "_format": "hh-sol-artifact-1",
  "contractName": "Voting",
  "sourceName": "contracts/Voting.sol",
  "abi": [
    {
      "inputs": [],
      "stateMutability": "nonpayable",
      "type": "constructor"
    },
    {
      "anonymous": false,
      "inputs": [
        {
          "indexed": false,
          "internalType": "string",
          "name": "name",
          "type": "string"
        }
      ],
      "name": "OptionRegistered",
      "type": "event"
    },
    {
      "anonymous": false,
      "inputs": [
        {
          "indexed": false,
          "internalType": "address",
          "name": "voter",
          "type": "address"
        },
        {
          "indexed": false,
          "internalType": "string",
          "name": "option",
          "type": "string"
        }
      ],
      "name": "Voted",
      "type": "event"
    },
    {
      "anonymous": false,
      "inputs": [
        {
          "indexed": false,
          "internalType": "uint256",
          "name": "startTime",
          "type": "uint256"
        },
        {
          "indexed": false,
          "internalType": "uint256",
          "name": "endTime",
          "type": "uint256"
        }
      ],
      "name": "VotingStarted",
      "type": "event"
    },
    {
      "inputs": [
        {
          "internalType": "string",
          "name": "_option",
          "type": "string"
        }
      ],
      "name": "castVote",
      "outputs": [],
      "stateMutability": "nonpayable",
      "type": "function"
    },
    {
      "inputs": [],
      "name": "endTimestamp",
      "outputs": [
        {
          "internalType": "uint256",
          "name": "",
          "type": "uint256"
        }
      ],
      "stateMutability": "view",
      "type": "function"
    },
    {
      "inputs": [],
      "name": "getOptions",
      "outputs": [
        {
          "internalType": "string[]",
          "name": "",
          "type": "string[]"
        }
      ],
      "stateMutability": "view",
      "type": "function"
    },
    {
      "inputs": [
        {
          "internalType": "string",
          "name": "_option",
          "type": "string"
        }
      ],
      "name": "getVotes",
      "outputs": [
        {
          "internalType": "uint256",
          "name": "",
          "type": "uint256"
        }
      ],
      "stateMutability": "view",
      "type": "function"
    },
    {
      "inputs": [],
      "name": "isOpen",
      "outputs": [
        {
          "internalType": "bool",
          "name": "",
          "type": "bool"
        }
      ],
      "stateMutability": "view",
      "type": "function"
    },
    {
      "inputs": [
        {
          "internalType": "uint256",
          "name": "_startTimestamp",
          "type": "uint256"
        },
        {
          "internalType": "uint256",
          "name": "_endTimestamp",
          "type": "uint256"
        }
      ],
      "name": "openVoting",
      "outputs": [],
      "stateMutability": "nonpayable",
      "type": "function"
    },
    {
      "inputs": [
        {
          "internalType": "uint256",
          "name": "",
          "type": "uint256"
        }
      ],
      "name": "optionList",
      "outputs": [
        {
          "internalType": "string",
          "name": "",
          "type": "string"
        }
      ],
      "stateMutability": "view",
      "type": "function"
    },
    {
      "inputs": [],
      "name": "owner",
      "outputs": [
        {
          "internalType": "address",
          "name": "",
          "type": "address"
        }
      ],
      "stateMutability": "view",
      "type": "function"
    },
    {
      "inputs": [
        {
          "internalType": "string",
          "name": "_option",
          "type": "string"
        }
      ],
      "name": "registerOption",
      "outputs": [],
      "stateMutability": "nonpayable",
      "type": "function"
    },
    {
      "inputs": [
        {
          "internalType": "address",
          "name": "_voter",
          "type": "address"
        }
      ],
      "name": "registerVoter",
      "outputs": [],
      "stateMutability": "nonpayable",
      "type": "function"
    },
    {
      "inputs": [
        {
          "internalType": "address",
          "name": "",
          "type": "address"
        }
      ],
      "name": "registeredVoters",
      "outputs": [
        {
          "internalType": "bool",
          "name": "isRegistered",
          "type": "bool"
        },
        {
          "internalType": "bool",
          "name": "hasVoted",
          "type": "bool"
        },
        {
          "internalType": "string",
          "name": "votedOption",
          "type": "string"
        }
      ],
      "stateMutability": "view",
      "type": "function"
    },
    {
      "inputs": [],
      "name": "startTimestamp",
      "outputs": [
        {
          "internalType": "uint256",
          "name": "",
          "type": "uint256"
        }
      ],
      "stateMutability": "view",
      "type": "function"
    },
    {
      "inputs": [
        {
          "internalType": "string",
          "name": "",
          "type": "string"
        }
      ],
      "name": "validOptions",
      "outputs": [
        {
          "internalType": "bool",
          "name": "",
          "type": "bool"
        }
      ],
      "stateMutability": "view",
      "type": "function"
    },
    {
      "inputs": [
        {
          "internalType": "string",
          "name": "",
          "type": "string"
        }
      ],
      "name": "votes",
      "outputs": [
        {
          "internalType": "uint256",
          "name": "",
          "type": "uint256"
        }
      ],
      "stateMutability": "view",
      "type": "function"
    }
  ],
  "bytecode": "0x608060405234801561001057600080fd5b50336000806101000a81548173ffffffffffffffffffffffffffffffffffffffff021916908373ffffffffffffffffffffffffffffffffffffffff1602179055506000600360006101000a81548160ff021916908315150217905550611bca8061007b6000396000f3fe608060405234801561001057600080fd5b50600436106100ea5760003560e01c8063a1d9546a1161008c578063a9ff6df111610066578063a9ff6df114610249578063b99ef1fa1461027b578063cc2ee196146102ab578063e6fd48bc146102c9576100ea565b8063a1d9546a146101df578063a4fef0b01461020f578063a85adeab1461022b576100ea565b806364cae091116100c857806364cae09114610159578063805265e5146101755780638da5cb5b146101a55780639cc2d993146101c3576100ea565b806338db6dd3146100ef57806347535d7b1461010b578063573489a914610129575b600080fd5b61010960048036038101906101049190610e85565b6102e7565b005b610113610423565b6040516101209190610ecd565b60405180910390f35b610143600480360381019061013e9190610f1e565b610436565b6040516101509190610fdb565b60405180910390f35b610173600480360381019061016e9190610ffd565b6104e2565b005b61018f600480360381019061018a9190611172565b61065f565b60405161019c91906111ca565b60405180910390f35b6101ad6106f2565b6040516101ba91906111f4565b60405180910390f35b6101dd60048036038101906101d89190611172565b610716565b005b6101f960048036038101906101f49190611172565b610a0e565b6040516102069190610ecd565b60405180910390f35b61022960048036038101906102249190611172565b610a44565b005b610233610c34565b60405161024091906111ca565b60405180910390f35b610263600480360381019061025e9190610e85565b610c3a565b6040516102729392919061120f565b60405180910390f35b61029560048036038101906102909190611172565b610d06565b6040516102a291906111ca565b60405180910390f35b6102b3610d34565b6040516102c09190611359565b60405180910390f35b6102d1610e0d565b6040516102de91906111ca565b60405180910390f35b60008054906101000a900473ffffffffffffffffffffffffffffffffffffffff1673ffffffffffffffffffffffffffffffffffffffff163373ffffffffffffffffffffffffffffffffffffffff1614610375576040517f08c379a000000000000000000000000000000000000000000000000000000000815260040161036c906113ed565b60405180910390fd5b600360009054906101000a900460ff16156103c5576040517f08c379a00000000000000000000000000000000000000000000000000000000081526004016103bc90611459565b60405180910390fd5b6001600460008373ffffffffffffffffffffffffffffffffffffffff1673ffffffffffffffffffffffffffffffffffffffff16815260200190815260200160002060000160006101000a81548160ff02191690831515021790555050565b600360009054906101000a900460ff1681565b6007818154811061044657600080fd5b906000526020600020016000915090508054610461906114a8565b80601f016020809104026020016040519081016040528092919081815260200182805461048d906114a8565b80156104da5780601f106104af576101008083540402835291602001916104da565b820191906000526020600020905b8154815290600101906020018083116104bd57829003601f168201915b505050505081565b60008054906101000a900473ffffffffffffffffffffffffffffffffffffffff1673ffffffffffffffffffffffffffffffffffffffff163373ffffffffffffffffffffffffffffffffffffffff1614610570576040517f08c379a0000000000000000000000000000000000000000000000000000000008152600401610567906113ed565b60405180910390fd5b428210156105b3576040517f08c379a00000000000000000000000000000000000000000000000000000000081526004016105aa90611525565b60405180910390fd5b8181116105f5576040517f08c379a00000000000000000000000000000000000000000000000000000000081526004016105ec906115b7565b60405180910390fd5b81600181905550806002819055506001600360006101000a81548160ff0219169083151502179055507ff8c022056754dbacca05aff710dc315a2fa7699ae9309fda403cd1e55c11d40f6001546002546040516106539291906115d7565b60405180910390a15050565b6000600682604051610671919061163c565b908152602001604051809103902060009054906101000a900460ff166106cc576040517f08c379a00000000000000000000000000000000000000000000000000000000081526004016106c39061169f565b60405180910390fd5b6005826040516106dc919061163c565b9081526020016040518091039020549050919050565b60008054906101000a900473ffffffffffffffffffffffffffffffffffffffff1681565b600154421015801561072a57506002544211155b610769576040517f08c379a00000000000000000000000000000000000000000000000000000000081526004016107609061170b565b60405180910390fd5b600460003373ffffffffffffffffffffffffffffffffffffffff1673ffffffffffffffffffffffffffffffffffffffff16815260200190815260200160002060000160009054906101000a900460ff166107f8576040517f08c379a00000000000000000000000000000000000000000000000000000000081526004016107ef90611777565b60405180910390fd5b600460003373ffffffffffffffffffffffffffffffffffffffff1673ffffffffffffffffffffffffffffffffffffffff16815260200190815260200160002060000160019054906101000a900460ff1615610888576040517f08c379a000000000000000000000000000000000000000000000000000000000815260040161087f906117e3565b60405180910390fd5b600681604051610898919061163c565b908152602001604051809103902060009054906101000a900460ff166108f3576040517f08c379a00000000000000000000000000000000000000000000000000000000081526004016108ea9061169f565b60405180910390fd5b6001600460003373ffffffffffffffffffffffffffffffffffffffff1673ffffffffffffffffffffffffffffffffffffffff16815260200190815260200160002060000160016101000a81548160ff02191690831515021790555080600460003373ffffffffffffffffffffffffffffffffffffffff1673ffffffffffffffffffffffffffffffffffffffff168152602001908152602001600020600101908161099d91906119af565b506005816040516109ae919061163c565b908152602001604051809103902060008154809291906109cd90611ab0565b91905055507fcb6783276e8a4347387036bbfea000268f0a4b1f8c46ac79980609f2af8d2acd3382604051610a03929190611af8565b60405180910390a150565b6006818051602081018201805184825260208301602085012081835280955050505050506000915054906101000a900460ff1681565b60008054906101000a900473ffffffffffffffffffffffffffffffffffffffff1673ffffffffffffffffffffffffffffffffffffffff163373ffffffffffffffffffffffffffffffffffffffff1614610ad2576040517f08c379a0000000000000000000000000000000000000000000000000000000008152600401610ac9906113ed565b60405180910390fd5b600360009054906101000a900460ff1615610b22576040517f08c379a0000000000000000000000000000000000000000000000000000000008152600401610b1990611459565b60405180910390fd5b600681604051610b32919061163c565b908152602001604051809103902060009054906101000a900460ff1615610b8e576040517f08c379a0000000000000000000000000000000000000000000000000000000008152600401610b8590611b74565b60405180910390fd5b6001600682604051610ba0919061163c565b908152602001604051809103902060006101000a81548160ff021916908315150217905550600781908060018154018082558091505060019003906000526020600020016000909190919091509081610bf991906119af565b507fdee39d914d4cdb6b61d44ed337bbfc1bf3fae73b8e1f5193e18ab08bc30f2ae281604051610c299190610fdb565b60405180910390a150565b60025481565b60046020528060005260406000206000915090508060000160009054906101000a900460ff16908060000160019054906101000a900460ff1690806001018054610c83906114a8565b80601f0160208091040260200160405190810160405280929190818152602001828054610caf906114a8565b8015610cfc5780601f10610cd157610100808354040283529160200191610cfc565b820191906000526020600020905b815481529060010190602001808311610cdf57829003601f168201915b5050505050905083565b6005818051602081018201805184825260208301602085012081835280955050505050506000915090505481565b60606007805480602002602001604051908101604052809291908181526020016000905b82821015610e04578382906000526020600020018054610d77906114a8565b80601f0160208091040260200160405190810160405280929190818152602001828054610da3906114a8565b8015610df05780601f10610dc557610100808354040283529160200191610df0565b820191906000526020600020905b815481529060010190602001808311610dd357829003601f168201915b505050505081526020019060010190610d58565b50505050905090565b60015481565b6000604051905090565b600080fd5b600080fd5b600073ffffffffffffffffffffffffffffffffffffffff82169050919050565b6000610e5282610e27565b9050919050565b610e6281610e47565b8114610e6d57600080fd5b50565b600081359050610e7f81610e59565b92915050565b600060208284031215610e9b57610e9a610e1d565b5b6000610ea984828501610e70565b91505092915050565b60008115159050919050565b610ec781610eb2565b82525050565b6000602082019050610ee26000830184610ebe565b92915050565b6000819050919050565b610efb81610ee8565b8114610f0657600080fd5b50565b600081359050610f1881610ef2565b92915050565b600060208284031215610f3457610f33610e1d565b5b6000610f4284828501610f09565b91505092915050565b600081519050919050565b600082825260208201905092915050565b60005b83811015610f85578082015181840152602081019050610f6a565b60008484015250505050565b6000601f19601f8301169050919050565b6000610fad82610f4b565b610fb78185610f56565b9350610fc7818560208601610f67565b610fd081610f91565b840191505092915050565b60006020820190508181036000830152610ff58184610fa2565b905092915050565b6000806040838503121561101457611013610e1d565b5b600061102285828601610f09565b925050602061103385828601610f09565b9150509250929050565b600080fd5b600080fd5b7f4e487b7100000000000000000000000000000000000000000000000000000000600052604160045260246000fd5b61107f82610f91565b810181811067ffffffffffffffff8211171561109e5761109d611047565b5b80604052505050565b60006110b1610e13565b90506110bd8282611076565b919050565b600067ffffffffffffffff8211156110dd576110dc611047565b5b6110e682610f91565b9050602081019050919050565b82818337600083830152505050565b6000611115611110846110c2565b6110a7565b90508281526020810184848401111561113157611130611042565b5b61113c8482856110f3565b509392505050565b600082601f8301126111595761115861103d565b5b8135611169848260208601611102565b91505092915050565b60006020828403121561118857611187610e1d565b5b600082013567ffffffffffffffff8111156111a6576111a5610e22565b5b6111b284828501611144565b91505092915050565b6111c481610ee8565b82525050565b60006020820190506111df60008301846111bb565b92915050565b6111ee81610e47565b82525050565b600060208201905061120960008301846111e5565b92915050565b60006060820190506112246000830186610ebe565b6112316020830185610ebe565b81810360408301526112438184610fa2565b9050949350505050565b600081519050919050565b600082825260208201905092915050565b6000819050602082019050919050565b600082825260208201905092915050565b600061129582610f4b565b61129f8185611279565b93506112af818560208601610f67565b6112b881610f91565b840191505092915050565b60006112cf838361128a565b905092915050565b6000602082019050919050565b60006112ef8261124d565b6112f98185611258565b93508360208202850161130b85611269565b8060005b85811015611347578484038952815161132885826112c3565b9450611333836112d7565b925060208a0199505060018101905061130f565b50829750879550505050505092915050565b6000602082019050818103600083015261137381846112e4565b905092915050565b7f4f6e6c79206f776e65722063616e20706572666f726d2074686973206163746960008201527f6f6e000000000000000000000000000000000000000000000000000000000000602082015250565b60006113d7602283610f56565b91506113e28261137b565b604082019050919050565b60006020820190508181036000830152611406816113ca565b9050919050565b7f566f74696e672068617320616c72656164792073746172746564000000000000600082015250565b6000611443601a83610f56565b915061144e8261140d565b602082019050919050565b6000602082019050818103600083015261147281611436565b9050919050565b7f4e487b7100000000000000000000000000000000000000000000000000000000600052602260045260246000fd5b600060028204905060018216806114c057607f821691505b6020821081036114d3576114d2611479565b5b50919050565b7f53746172742074696d65206d75737420626520696e2074686520667574757265600082015250565b600061150f602083610f56565b915061151a826114d9565b602082019050919050565b6000602082019050818103600083015261153e81611502565b9050919050565b7f456e642074696d65206d7573742062652061667465722073746172742074696d60008201527f6500000000000000000000000000000000000000000000000000000000000000602082015250565b60006115a1602183610f56565b91506115ac82611545565b604082019050919050565b600060208201905081810360008301526115d081611594565b9050919050565b60006040820190506115ec60008301856111bb565b6115f960208301846111bb565b9392505050565b600081905092915050565b600061161682610f4b565b6116208185611600565b9350611630818560208601610f67565b80840191505092915050565b6000611648828461160b565b915081905092915050565b7f496e76616c6964206f7074696f6e000000000000000000000000000000000000600082015250565b6000611689600e83610f56565b915061169482611653565b602082019050919050565b600060208201905081810360008301526116b88161167c565b9050919050565b7f566f74696e67206973206e6f7420696e2070726f67726573732e000000000000600082015250565b60006116f5601a83610f56565b9150611700826116bf565b602082019050919050565b60006020820190508181036000830152611724816116e8565b9050919050565b7f596f7520617265206e6f74207265676973746572656420746f20766f74650000600082015250565b6000611761601e83610f56565b915061176c8261172b565b602082019050919050565b6000602082019050818103600083015261179081611754565b9050919050565b7f596f75206861766520616c7265616479206361737420796f757220766f746500600082015250565b60006117cd601f83610f56565b91506117d882611797565b602082019050919050565b600060208201905081810360008301526117fc816117c0565b9050919050565b60008190508160005260206000209050919050565b60006020601f8301049050919050565b600082821b905092915050565b6000600883026118657fffffffffffffffffffffffffffffffffffffffffffffffffffffffffffffffff82611828565b61186f8683611828565b95508019841693508086168417925050509392505050565b6000819050919050565b60006118ac6118a76118a284610ee8565b611887565b610ee8565b9050919050565b6000819050919050565b6118c683611891565b6118da6118d2826118b3565b848454611835565b825550505050565b600090565b6118ef6118e2565b6118fa8184846118bd565b505050565b5b8181101561191e576119136000826118e7565b600181019050611900565b5050565b601f8211156119635761193481611803565b61193d84611818565b8101602085101561194c578190505b61196061195885611818565b8301826118ff565b50505b505050565b600082821c905092915050565b600061198660001984600802611968565b1980831691505092915050565b600061199f8383611975565b9150826002028217905092915050565b6119b882610f4b565b67ffffffffffffffff8111156119d1576119d0611047565b5b6119db82546114a8565b6119e6828285611922565b600060209050601f831160018114611a195760008415611a07578287015190505b611a118582611993565b865550611a79565b601f198416611a2786611803565b60005b82811015611a4f57848901518255600182019150602085019450602081019050611a2a565b86831015611a6c5784890151611a68601f891682611975565b8355505b6001600288020188555050505b505050505050565b7f4e487b7100000000000000000000000000000000000000000000000000000000600052601160045260246000fd5b6000611abb82610ee8565b91507fffffffffffffffffffffffffffffffffffffffffffffffffffffffffffffffff8203611aed57611aec611a81565b5b600182019050919050565b6000604082019050611b0d60008301856111e5565b8181036020830152611b1f8184610fa2565b90509392505050565b7f4f7074696f6e2068617320616c72656164792072656769737465726564000000600082015250565b6000611b5e601d83610f56565b9150611b6982611b28565b602082019050919050565b60006020820190508181036000830152611b8d81611b51565b905091905056fea264697066735822122036ed02c70456dc055839b8c74904d6d502c0088b923df70ea3239fa01144d2b464736f6c63430008110033",
  "linkReferences": {},
  "deployedLinkReferences": {}
}