{
    "_format": "hh-sol-artifact-1",
    "contractName": "Voting",
    "sourceName": "contracts/Voting.sol",
    "abi": [
        {
            "inputs": [],
            "stateMutability": "nonpayable",
            "type": "constructor"
        },
        {
            "anonymous": false,
            "inputs": [
                {
                    "indexed": false,
                    "internalType": "string",
                    "name": "name",
                    "type": "string"
                }
            ],
            "name": "OptionRegistered",
            "type": "event"
        },
        {
            "anonymous": false,
            "inputs": [
                {
                    "indexed": false,
                    "internalType": "address",
                    "name": "voter",
                    "type": "address"
                },
                {
                    "indexed": false,
                    "internalType": "string",
                    "name": "option",
                    "type": "string"
                }
            ],
            "name": "Voted",
            "type": "event"
        },
        {
            "anonymous": false,
            "inputs": [
                {
                    "indexed": false,
                    "internalType": "address",
                    "name": "voter",
                    "type": "address"
                }
            ],
            "name": "VoterRegistered",
            "type": "event"
        },
        {
            "anonymous": false,
            "inputs": [
                {
                    "indexed": false,
                    "internalType": "uint256",
                    "name": "startTime",
                    "type": "uint256"
                },
                {
                    "indexed": false,
                    "internalType": "uint256",
                    "name": "endTime",
                    "type": "uint256"
                }
            ],
            "name": "VotingStarted",
            "type": "event"
        },
        {
            "inputs": [
                {
                    "internalType": "string",
                    "name": "_option",
                    "type": "string"
                }
            ],
            "name": "castVote",
            "outputs": [],
            "stateMutability": "nonpayable",
            "type": "function"
        },
        {
            "inputs": [],
            "name": "endTimestamp",
            "outputs": [
                {
                    "internalType": "uint256",
                    "name": "",
                    "type": "uint256"
                }
            ],
            "stateMutability": "view",
            "type": "function"
        },
        {
            "inputs": [],
            "name": "getOptions",
            "outputs": [
                {
                    "internalType": "string[]",
                    "name": "",
                    "type": "string[]"
                }
            ],
            "stateMutability": "view",
            "type": "function"
        },
        {
            "inputs": [
                {
                    "internalType": "string",
                    "name": "_option",
                    "type": "string"
                }
            ],
            "name": "getVotes",
            "outputs": [
                {
                    "internalType": "uint256",
                    "name": "",
                    "type": "uint256"
                }
            ],
            "stateMutability": "view",
            "type": "function"
        },
        {
            "inputs": [],
            "name": "isOpen",
            "outputs": [
                {
                    "internalType": "bool",
                    "name": "",
                    "type": "bool"
                }
            ],
            "stateMutability": "view",
            "type": "function"
        },
        {
            "inputs": [
                {
                    "internalType": "uint256",
                    "name": "_startTimestamp",
                    "type": "uint256"
                },
                {
                    "internalType": "uint256",
                    "name": "_endTimestamp",
                    "type": "uint256"
                }
            ],
            "name": "openVoting",
            "outputs": [],
            "stateMutability": "nonpayable",
            "type": "function"
        },
        {
            "inputs": [
                {
                    "internalType": "uint256",
                    "name": "",
                    "type": "uint256"
                }
            ],
            "name": "optionList",
            "outputs": [
                {
                    "internalType": "string",
                    "name": "",
                    "type": "string"
                }
            ],
            "stateMutability": "view",
            "type": "function"
        },
        {
            "inputs": [],
            "name": "owner",
            "outputs": [
                {
                    "internalType": "address",
                    "name": "",
                    "type": "address"
                }
            ],
            "stateMutability": "view",
            "type": "function"
        },
        {
            "inputs": [
                {
                    "internalType": "string",
                    "name": "_option",
                    "type": "string"
                }
            ],
            "name": "registerOption",
            "outputs": [],
            "stateMutability": "nonpayable",
            "type": "function"
        },
        {
            "inputs": [
                {
                    "internalType": "address",
                    "name": "_voter",
                    "type": "address"
                }
            ],
            "name": "registerVoter",
            "outputs": [],
            "stateMutability": "nonpayable",
            "type": "function"
        },
        {
            "inputs": [
                {
                    "internalType": "address",
                    "name": "",
                    "type": "address"
                }
            ],
            "name": "registeredVoters",
            "outputs": [
                {
                    "internalType": "bool",
                    "name": "isRegistered",
                    "type": "bool"
                },
                {
                    "internalType": "bool",
                    "name": "hasVoted",
                    "type": "bool"
                },
                {
                    "internalType": "string",
                    "name": "votedOption",
                    "type": "string"
                }
            ],
            "stateMutability": "view",
            "type": "function"
        },
        {
            "inputs": [],
            "name": "startTimestamp",
            "outputs": [
                {
                    "internalType": "uint256",
                    "name": "",
                    "type": "uint256"
                }
            ],
            "stateMutability": "view",
            "type": "function"
        },
        {
            "inputs": [
                {
                    "internalType": "string",
                    "name": "",
                    "type": "string"
                }
            ],
            "name": "validOptions",
            "outputs": [
                {
                    "internalType": "bool",
                    "name": "",
                    "type": "bool"
                }
            ],
            "stateMutability": "view",
            "type": "function"
        },
        {
            "inputs": [
                {
                    "internalType": "string",
                    "name": "",
                    "type": "string"
                }
            ],
            "name": "votes",
            "outputs": [
                {
                    "internalType": "uint256",
                    "name": "",
                    "type": "uint256"
                }
            ],
            "stateMutability": "view",
            "type": "function"
        }
    ],
    "bytecode": "0x608060405234801561001057600080fd5b50336000806101000a81548173ffffffffffffffffffffffffffffffffffffffff021916908373ffffffffffffffffffffffffffffffffffffffff1602179055506000600360006101000a81548160ff021916908315150217905550611d238061007b6000396000f3fe608060405234801561001057600080fd5b50600436106100ea5760003560e01c8063a1d9546a1161008c578063a9ff6df111610066578063a9ff6df114610249578063b99ef1fa1461027b578063cc2ee196146102ab578063e6fd48bc146102c9576100ea565b8063a1d9546a146101df578063a4fef0b01461020f578063a85adeab1461022b576100ea565b806364cae091116100c857806364cae09114610159578063805265e5146101755780638da5cb5b146101a55780639cc2d993146101c3576100ea565b806338db6dd3146100ef57806347535d7b1461010b578063573489a914610129575b600080fd5b61010960048036038101906101049190610f4c565b6102e7565b005b6101136104ea565b6040516101209190610f94565b60405180910390f35b610143600480360381019061013e9190610fe5565b6104fd565b60405161015091906110a2565b60405180910390f35b610173600480360381019061016e91906110c4565b6105a9565b005b61018f600480360381019061018a9190611239565b610726565b60405161019c9190611291565b60405180910390f35b6101ad6107b9565b6040516101ba91906112bb565b60405180910390f35b6101dd60048036038101906101d89190611239565b6107dd565b005b6101f960048036038101906101f49190611239565b610ad5565b6040516102069190610f94565b60405180910390f35b61022960048036038101906102249190611239565b610b0b565b005b610233610cfb565b6040516102409190611291565b60405180910390f35b610263600480360381019061025e9190610f4c565b610d01565b604051610272939291906112d6565b60405180910390f35b61029560048036038101906102909190611239565b610dcd565b6040516102a29190611291565b60405180910390f35b6102b3610dfb565b6040516102c09190611420565b60405180910390f35b6102d1610ed4565b6040516102de9190611291565b60405180910390f35b60008054906101000a900473ffffffffffffffffffffffffffffffffffffffff1673ffffffffffffffffffffffffffffffffffffffff163373ffffffffffffffffffffffffffffffffffffffff1614610375576040517f08c379a000000000000000000000000000000000000000000000000000000000815260040161036c906114b4565b60405180910390fd5b600360009054906101000a900460ff16156103c5576040517f08c379a00000000000000000000000000000000000000000000000000000000081526004016103bc90611520565b60405180910390fd5b600460008273ffffffffffffffffffffffffffffffffffffffff1673ffffffffffffffffffffffffffffffffffffffff16815260200190815260200160002060000160009054906101000a900460ff1615610455576040517f08c379a000000000000000000000000000000000000000000000000000000000815260040161044c906115b2565b60405180910390fd5b6001600460008373ffffffffffffffffffffffffffffffffffffffff1673ffffffffffffffffffffffffffffffffffffffff16815260200190815260200160002060000160006101000a81548160ff0219169083151502179055507fb6be2187d059cc2a55fe29e0e503b566e1e0f8c8780096e185429350acffd3dd816040516104df91906112bb565b60405180910390a150565b600360009054906101000a900460ff1681565b6007818154811061050d57600080fd5b90600052602060002001600091509050805461052890611601565b80601f016020809104026020016040519081016040528092919081815260200182805461055490611601565b80156105a15780601f10610576576101008083540402835291602001916105a1565b820191906000526020600020905b81548152906001019060200180831161058457829003601f168201915b505050505081565b60008054906101000a900473ffffffffffffffffffffffffffffffffffffffff1673ffffffffffffffffffffffffffffffffffffffff163373ffffffffffffffffffffffffffffffffffffffff1614610637576040517f08c379a000000000000000000000000000000000000000000000000000000000815260040161062e906114b4565b60405180910390fd5b4282101561067a576040517f08c379a00000000000000000000000000000000000000000000000000000000081526004016106719061167e565b60405180910390fd5b8181116106bc576040517f08c379a00000000000000000000000000000000000000000000000000000000081526004016106b390611710565b60405180910390fd5b81600181905550806002819055506001600360006101000a81548160ff0219169083151502179055507ff8c022056754dbacca05aff710dc315a2fa7699ae9309fda403cd1e55c11d40f60015460025460405161071a929190611730565b60405180910390a15050565b60006006826040516107389190611795565b908152602001604051809103902060009054906101000a900460ff16610793576040517f08c379a000000000000000000000000000000000000000000000000000000000815260040161078a906117f8565b60405180910390fd5b6005826040516107a39190611795565b9081526020016040518091039020549050919050565b60008054906101000a900473ffffffffffffffffffffffffffffffffffffffff1681565b60015442101580156107f157506002544211155b610830576040517f08c379a000000000000000000000000000000000000000000000000000000000815260040161082790611864565b60405180910390fd5b600460003373ffffffffffffffffffffffffffffffffffffffff1673ffffffffffffffffffffffffffffffffffffffff16815260200190815260200160002060000160009054906101000a900460ff166108bf576040517f08c379a00000000000000000000000000000000000000000000000000000000081526004016108b6906118d0565b60405180910390fd5b600460003373ffffffffffffffffffffffffffffffffffffffff1673ffffffffffffffffffffffffffffffffffffffff16815260200190815260200160002060000160019054906101000a900460ff161561094f576040517f08c379a00000000000000000000000000000000000000000000000000000000081526004016109469061193c565b60405180910390fd5b60068160405161095f9190611795565b908152602001604051809103902060009054906101000a900460ff166109ba576040517f08c379a00000000000000000000000000000000000000000000000000000000081526004016109b1906117f8565b60405180910390fd5b6001600460003373ffffffffffffffffffffffffffffffffffffffff1673ffffffffffffffffffffffffffffffffffffffff16815260200190815260200160002060000160016101000a81548160ff02191690831515021790555080600460003373ffffffffffffffffffffffffffffffffffffffff1673ffffffffffffffffffffffffffffffffffffffff1681526020019081526020016000206001019081610a649190611b08565b50600581604051610a759190611795565b90815260200160405180910390206000815480929190610a9490611c09565b91905055507fcb6783276e8a4347387036bbfea000268f0a4b1f8c46ac79980609f2af8d2acd3382604051610aca929190611c51565b60405180910390a150565b6006818051602081018201805184825260208301602085012081835280955050505050506000915054906101000a900460ff1681565b60008054906101000a900473ffffffffffffffffffffffffffffffffffffffff1673ffffffffffffffffffffffffffffffffffffffff163373ffffffffffffffffffffffffffffffffffffffff1614610b99576040517f08c379a0000000000000000000000000000000000000000000000000000000008152600401610b90906114b4565b60405180910390fd5b600360009054906101000a900460ff1615610be9576040517f08c379a0000000000000000000000000000000000000000000000000000000008152600401610be090611520565b60405180910390fd5b600681604051610bf99190611795565b908152602001604051809103902060009054906101000a900460ff1615610c55576040517f08c379a0000000000000000000000000000000000000000000000000000000008152600401610c4c90611ccd565b60405180910390fd5b6001600682604051610c679190611795565b908152602001604051809103902060006101000a81548160ff021916908315150217905550600781908060018154018082558091505060019003906000526020600020016000909190919091509081610cc09190611b08565b507fdee39d914d4cdb6b61d44ed337bbfc1bf3fae73b8e1f5193e18ab08bc30f2ae281604051610cf091906110a2565b60405180910390a150565b60025481565b60046020528060005260406000206000915090508060000160009054906101000a900460ff16908060000160019054906101000a900460ff1690806001018054610d4a90611601565b80601f0160208091040260200160405190810160405280929190818152602001828054610d7690611601565b8015610dc35780601f10610d9857610100808354040283529160200191610dc3565b820191906000526020600020905b815481529060010190602001808311610da657829003601f168201915b5050505050905083565b6005818051602081018201805184825260208301602085012081835280955050505050506000915090505481565b60606007805480602002602001604051908101604052809291908181526020016000905b82821015610ecb578382906000526020600020018054610e3e90611601565b80601f0160208091040260200160405190810160405280929190818152602001828054610e6a90611601565b8015610eb75780601f10610e8c57610100808354040283529160200191610eb7565b820191906000526020600020905b815481529060010190602001808311610e9a57829003601f168201915b505050505081526020019060010190610e1f565b50505050905090565b60015481565b6000604051905090565b600080fd5b600080fd5b600073ffffffffffffffffffffffffffffffffffffffff82169050919050565b6000610f1982610eee565b9050919050565b610f2981610f0e565b8114610f3457600080fd5b50565b600081359050610f4681610f20565b92915050565b600060208284031215610f6257610f61610ee4565b5b6000610f7084828501610f37565b91505092915050565b60008115159050919050565b610f8e81610f79565b82525050565b6000602082019050610fa96000830184610f85565b92915050565b6000819050919050565b610fc281610faf565b8114610fcd57600080fd5b50565b600081359050610fdf81610fb9565b92915050565b600060208284031215610ffb57610ffa610ee4565b5b600061100984828501610fd0565b91505092915050565b600081519050919050565b600082825260208201905092915050565b60005b8381101561104c578082015181840152602081019050611031565b60008484015250505050565b6000601f19601f8301169050919050565b600061107482611012565b61107e818561101d565b935061108e81856020860161102e565b61109781611058565b840191505092915050565b600060208201905081810360008301526110bc8184611069565b905092915050565b600080604083850312156110db576110da610ee4565b5b60006110e985828601610fd0565b92505060206110fa85828601610fd0565b9150509250929050565b600080fd5b600080fd5b7f4e487b7100000000000000000000000000000000000000000000000000000000600052604160045260246000fd5b61114682611058565b810181811067ffffffffffffffff821117156111655761116461110e565b5b80604052505050565b6000611178610eda565b9050611184828261113d565b919050565b600067ffffffffffffffff8211156111a4576111a361110e565b5b6111ad82611058565b9050602081019050919050565b82818337600083830152505050565b60006111dc6111d784611189565b61116e565b9050828152602081018484840111156111f8576111f7611109565b5b6112038482856111ba565b509392505050565b600082601f8301126112205761121f611104565b5b81356112308482602086016111c9565b91505092915050565b60006020828403121561124f5761124e610ee4565b5b600082013567ffffffffffffffff81111561126d5761126c610ee9565b5b6112798482850161120b565b91505092915050565b61128b81610faf565b82525050565b60006020820190506112a66000830184611282565b92915050565b6112b581610f0e565b82525050565b60006020820190506112d060008301846112ac565b92915050565b60006060820190506112eb6000830186610f85565b6112f86020830185610f85565b818103604083015261130a8184611069565b9050949350505050565b600081519050919050565b600082825260208201905092915050565b6000819050602082019050919050565b600082825260208201905092915050565b600061135c82611012565b6113668185611340565b935061137681856020860161102e565b61137f81611058565b840191505092915050565b60006113968383611351565b905092915050565b6000602082019050919050565b60006113b682611314565b6113c0818561131f565b9350836020820285016113d285611330565b8060005b8581101561140e57848403895281516113ef858261138a565b94506113fa8361139e565b925060208a019950506001810190506113d6565b50829750879550505050505092915050565b6000602082019050818103600083015261143a81846113ab565b905092915050565b7f4f6e6c79206f776e65722063616e20706572666f726d2074686973206163746960008201527f6f6e000000000000000000000000000000000000000000000000000000000000602082015250565b600061149e60228361101d565b91506114a982611442565b604082019050919050565b600060208201905081810360008301526114cd81611491565b9050919050565b7f566f74696e672068617320616c72656164792073746172746564000000000000600082015250565b600061150a601a8361101d565b9150611515826114d4565b602082019050919050565b60006020820190508181036000830152611539816114fd565b9050919050565b7f54686520766f7465722068617320616c7265616479206265656e20726567697360008201527f74657265642e0000000000000000000000000000000000000000000000000000602082015250565b600061159c60268361101d565b91506115a782611540565b604082019050919050565b600060208201905081810360008301526115cb8161158f565b9050919050565b7f4e487b7100000000000000000000000000000000000000000000000000000000600052602260045260246000fd5b6000600282049050600182168061161957607f821691505b60208210810361162c5761162b6115d2565b5b50919050565b7f53746172742074696d65206d75737420626520696e2074686520667574757265600082015250565b600061166860208361101d565b915061167382611632565b602082019050919050565b600060208201905081810360008301526116978161165b565b9050919050565b7f456e642074696d65206d7573742062652061667465722073746172742074696d60008201527f6500000000000000000000000000000000000000000000000000000000000000602082015250565b60006116fa60218361101d565b91506117058261169e565b604082019050919050565b60006020820190508181036000830152611729816116ed565b9050919050565b60006040820190506117456000830185611282565b6117526020830184611282565b9392505050565b600081905092915050565b600061176f82611012565b6117798185611759565b935061178981856020860161102e565b80840191505092915050565b60006117a18284611764565b915081905092915050565b7f496e76616c6964206f7074696f6e000000000000000000000000000000000000600082015250565b60006117e2600e8361101d565b91506117ed826117ac565b602082019050919050565b60006020820190508181036000830152611811816117d5565b9050919050565b7f566f74696e67206973206e6f7420696e2070726f67726573732e000000000000600082015250565b600061184e601a8361101d565b915061185982611818565b602082019050919050565b6000602082019050818103600083015261187d81611841565b9050919050565b7f596f7520617265206e6f74207265676973746572656420746f20766f74650000600082015250565b60006118ba601e8361101d565b91506118c582611884565b602082019050919050565b600060208201905081810360008301526118e9816118ad565b9050919050565b7f596f75206861766520616c7265616479206361737420796f757220766f746500600082015250565b6000611926601f8361101d565b9150611931826118f0565b602082019050919050565b6000602082019050818103600083015261195581611919565b9050919050565b60008190508160005260206000209050919050565b60006020601f8301049050919050565b600082821b905092915050565b6000600883026119be7fffffffffffffffffffffffffffffffffffffffffffffffffffffffffffffffff82611981565b6119c88683611981565b95508019841693508086168417925050509392505050565b6000819050919050565b6000611a05611a006119fb84610faf565b6119e0565b610faf565b9050919050565b6000819050919050565b611a1f836119ea565b611a33611a2b82611a0c565b84845461198e565b825550505050565b600090565b611a48611a3b565b611a53818484611a16565b505050565b5b81811015611a7757611a6c600082611a40565b600181019050611a59565b5050565b601f821115611abc57611a8d8161195c565b611a9684611971565b81016020851015611aa5578190505b611ab9611ab185611971565b830182611a58565b50505b505050565b600082821c905092915050565b6000611adf60001984600802611ac1565b1980831691505092915050565b6000611af88383611ace565b9150826002028217905092915050565b611b1182611012565b67ffffffffffffffff811115611b2a57611b2961110e565b5b611b348254611601565b611b3f828285611a7b565b600060209050601f831160018114611b725760008415611b60578287015190505b611b6a8582611aec565b865550611bd2565b601f198416611b808661195c565b60005b82811015611ba857848901518255600182019150602085019450602081019050611b83565b86831015611bc55784890151611bc1601f891682611ace565b8355505b6001600288020188555050505b505050505050565b7f4e487b7100000000000000000000000000000000000000000000000000000000600052601160045260246000fd5b6000611c1482610faf565b91507fffffffffffffffffffffffffffffffffffffffffffffffffffffffffffffffff8203611c4657611c45611bda565b5b600182019050919050565b6000604082019050611c6660008301856112ac565b8181036020830152611c788184611069565b90509392505050565b7f4f7074696f6e2068617320616c72656164792072656769737465726564000000600082015250565b6000611cb7601d8361101d565b9150611cc282611c81565b602082019050919050565b60006020820190508181036000830152611ce681611caa565b905091905056fea26469706673582212208af3235d6da4b3541adad857d7b646b82ba5de03b9c603e65dcce468b0bbae8e64736f6c63430008110033",
    "linkReferences": {},
    "deployedLinkReferences": {}
}