{
    "_format": "hh-sol-artifact-1",
    "contractName": "Voting",
    "sourceName": "contracts/Voting.sol",
    "abi": [
        {
            "inputs": [],
            "stateMutability": "nonpayable",
            "type": "constructor"
        },
        {
            "anonymous": false,
            "inputs": [
                {
                    "indexed": false,
                    "internalType": "string",
                    "name": "name",
                    "type": "string"
                }
            ],
            "name": "OptionRegistered",
            "type": "event"
        },
        {
            "anonymous": false,
            "inputs": [
                {
                    "indexed": false,
                    "internalType": "address",
                    "name": "voter",
                    "type": "address"
                },
                {
                    "indexed": false,
                    "internalType": "string",
                    "name": "option",
                    "type": "string"
                }
            ],
            "name": "Voted",
            "type": "event"
        },
        {
            "anonymous": false,
            "inputs": [
                {
                    "indexed": false,
                    "internalType": "address",
                    "name": "voter",
                    "type": "address"
                }
            ],
            "name": "VoterRegistered",
            "type": "event"
        },
        {
            "anonymous": false,
            "inputs": [
                {
                    "indexed": false,
                    "internalType": "uint256",
                    "name": "startTime",
                    "type": "uint256"
                },
                {
                    "indexed": false,
                    "internalType": "uint256",
                    "name": "endTime",
                    "type": "uint256"
                }
            ],
            "name": "VotingStarted",
            "type": "event"
        },
        {
            "inputs": [
                {
                    "internalType": "string",
                    "name": "_option",
                    "type": "string"
                }
            ],
            "name": "castVote",
            "outputs": [],
            "stateMutability": "nonpayable",
            "type": "function"
        },
        {
            "inputs": [],
            "name": "endTimestamp",
            "outputs": [
                {
                    "internalType": "uint256",
                    "name": "",
                    "type": "uint256"
                }
            ],
            "stateMutability": "view",
            "type": "function"
        },
        {
            "inputs": [],
            "name": "getOptions",
            "outputs": [
                {
                    "internalType": "string[]",
                    "name": "",
                    "type": "string[]"
                }
            ],
            "stateMutability": "view",
            "type": "function"
        },
        {
            "inputs": [
                {
                    "internalType": "string",
                    "name": "_option",
                    "type": "string"
                }
            ],
            "name": "getVotes",
            "outputs": [
                {
                    "internalType": "uint256",
                    "name": "",
                    "type": "uint256"
                }
            ],
            "stateMutability": "view",
            "type": "function"
        },
        {
            "inputs": [
                {
                    "internalType": "uint256",
                    "name": "_startTimestamp",
                    "type": "uint256"
                },
                {
                    "internalType": "uint256",
                    "name": "_endTimestamp",
                    "type": "uint256"
                }
            ],
            "name": "openVoting",
            "outputs": [],
            "stateMutability": "nonpayable",
            "type": "function"
        },
        {
            "inputs": [
                {
                    "internalType": "uint256",
                    "name": "",
                    "type": "uint256"
                }
            ],
            "name": "optionList",
            "outputs": [
                {
                    "internalType": "string",
                    "name": "",
                    "type": "string"
                }
            ],
            "stateMutability": "view",
            "type": "function"
        },
        {
            "inputs": [],
            "name": "owner",
            "outputs": [
                {
                    "internalType": "address",
                    "name": "",
                    "type": "address"
                }
            ],
            "stateMutability": "view",
            "type": "function"
        },
        {
            "inputs": [
                {
                    "internalType": "string",
                    "name": "_option",
                    "type": "string"
                }
            ],
            "name": "registerOption",
            "outputs": [],
            "stateMutability": "nonpayable",
            "type": "function"
        },
        {
            "inputs": [
                {
                    "internalType": "address",
                    "name": "_voter",
                    "type": "address"
                }
            ],
            "name": "registerVoter",
            "outputs": [],
            "stateMutability": "nonpayable",
            "type": "function"
        },
        {
            "inputs": [
                {
                    "internalType": "address",
                    "name": "",
                    "type": "address"
                }
            ],
            "name": "registeredVoters",
            "outputs": [
                {
                    "internalType": "bool",
                    "name": "isRegistered",
                    "type": "bool"
                },
                {
                    "internalType": "bool",
                    "name": "hasVoted",
                    "type": "bool"
                },
                {
                    "internalType": "string",
                    "name": "votedOption",
                    "type": "string"
                }
            ],
            "stateMutability": "view",
            "type": "function"
        },
        {
            "inputs": [],
            "name": "startTimestamp",
            "outputs": [
                {
                    "internalType": "uint256",
                    "name": "",
                    "type": "uint256"
                }
            ],
            "stateMutability": "view",
            "type": "function"
        },
        {
            "inputs": [
                {
                    "internalType": "string",
                    "name": "",
                    "type": "string"
                }
            ],
            "name": "validOptions",
            "outputs": [
                {
                    "internalType": "bool",
                    "name": "",
                    "type": "bool"
                }
            ],
            "stateMutability": "view",
            "type": "function"
        },
        {
            "inputs": [
                {
                    "internalType": "string",
                    "name": "",
                    "type": "string"
                }
            ],
            "name": "votes",
            "outputs": [
                {
                    "internalType": "uint256",
                    "name": "",
                    "type": "uint256"
                }
            ],
            "stateMutability": "view",
            "type": "function"
        }
    ],
    "bytecode": "0x608060405234801561001057600080fd5b50336000806101000a81548173ffffffffffffffffffffffffffffffffffffffff021916908373ffffffffffffffffffffffffffffffffffffffff160217905550611da8806100606000396000f3fe608060405234801561001057600080fd5b50600436106100cf5760003560e01c8063a1d9546a1161008c578063a9ff6df111610066578063a9ff6df114610210578063b99ef1fa14610242578063cc2ee19614610272578063e6fd48bc14610290576100cf565b8063a1d9546a146101a6578063a4fef0b0146101d6578063a85adeab146101f2576100cf565b806338db6dd3146100d4578063573489a9146100f057806364cae09114610120578063805265e51461013c5780638da5cb5b1461016c5780639cc2d9931461018a575b600080fd5b6100ee60048036038101906100e99190610fd1565b6102ae565b005b61010a60048036038101906101059190611034565b6104c6565b60405161011791906110f1565b60405180910390f35b61013a60048036038101906101359190611113565b610572565b005b61015660048036038101906101519190611288565b6106d4565b60405161016391906112e0565b60405180910390f35b610174610767565b604051610181919061130a565b60405180910390f35b6101a4600480360381019061019f9190611288565b61078b565b005b6101c060048036038101906101bb9190611288565b610a83565b6040516101cd9190611340565b60405180910390f35b6101f060048036038101906101eb9190611288565b610ab9565b005b6101fa610cbe565b60405161020791906112e0565b60405180910390f35b61022a60048036038101906102259190610fd1565b610cc4565b6040516102399392919061135b565b60405180910390f35b61025c60048036038101906102579190611288565b610d90565b60405161026991906112e0565b60405180910390f35b61027a610dbe565b60405161028791906114a5565b60405180910390f35b610298610e97565b6040516102a591906112e0565b60405180910390f35b60008054906101000a900473ffffffffffffffffffffffffffffffffffffffff1673ffffffffffffffffffffffffffffffffffffffff163373ffffffffffffffffffffffffffffffffffffffff161461033c576040517f08c379a000000000000000000000000000000000000000000000000000000000815260040161033390611539565b60405180910390fd5b610347600154610e9d565b61035042610e9d565b60006001541480610362575042600154115b6103a1576040517f08c379a0000000000000000000000000000000000000000000000000000000008152600401610398906115a5565b60405180910390fd5b600360008273ffffffffffffffffffffffffffffffffffffffff1673ffffffffffffffffffffffffffffffffffffffff16815260200190815260200160002060000160009054906101000a900460ff1615610431576040517f08c379a000000000000000000000000000000000000000000000000000000000815260040161042890611637565b60405180910390fd5b6001600360008373ffffffffffffffffffffffffffffffffffffffff1673ffffffffffffffffffffffffffffffffffffffff16815260200190815260200160002060000160006101000a81548160ff0219169083151502179055507fb6be2187d059cc2a55fe29e0e503b566e1e0f8c8780096e185429350acffd3dd816040516104bb919061130a565b60405180910390a150565b600681815481106104d657600080fd5b9060005260206000200160009150905080546104f190611686565b80601f016020809104026020016040519081016040528092919081815260200182805461051d90611686565b801561056a5780601f1061053f5761010080835404028352916020019161056a565b820191906000526020600020905b81548152906001019060200180831161054d57829003601f168201915b505050505081565b60008054906101000a900473ffffffffffffffffffffffffffffffffffffffff1673ffffffffffffffffffffffffffffffffffffffff163373ffffffffffffffffffffffffffffffffffffffff1614610600576040517f08c379a00000000000000000000000000000000000000000000000000000000081526004016105f790611539565b60405180910390fd5b42821015610643576040517f08c379a000000000000000000000000000000000000000000000000000000000815260040161063a90611703565b60405180910390fd5b818111610685576040517f08c379a000000000000000000000000000000000000000000000000000000000815260040161067c90611795565b60405180910390fd5b81600181905550806002819055507ff8c022056754dbacca05aff710dc315a2fa7699ae9309fda403cd1e55c11d40f6001546002546040516106c89291906117b5565b60405180910390a15050565b60006005826040516106e6919061181a565b908152602001604051809103902060009054906101000a900460ff16610741576040517f08c379a00000000000000000000000000000000000000000000000000000000081526004016107389061187d565b60405180910390fd5b600482604051610751919061181a565b9081526020016040518091039020549050919050565b60008054906101000a900473ffffffffffffffffffffffffffffffffffffffff1681565b600154421015801561079f57506002544211155b6107de576040517f08c379a00000000000000000000000000000000000000000000000000000000081526004016107d5906118e9565b60405180910390fd5b600360003373ffffffffffffffffffffffffffffffffffffffff1673ffffffffffffffffffffffffffffffffffffffff16815260200190815260200160002060000160009054906101000a900460ff1661086d576040517f08c379a000000000000000000000000000000000000000000000000000000000815260040161086490611955565b60405180910390fd5b600360003373ffffffffffffffffffffffffffffffffffffffff1673ffffffffffffffffffffffffffffffffffffffff16815260200190815260200160002060000160019054906101000a900460ff16156108fd576040517f08c379a00000000000000000000000000000000000000000000000000000000081526004016108f4906119c1565b60405180910390fd5b60058160405161090d919061181a565b908152602001604051809103902060009054906101000a900460ff16610968576040517f08c379a000000000000000000000000000000000000000000000000000000000815260040161095f9061187d565b60405180910390fd5b6001600360003373ffffffffffffffffffffffffffffffffffffffff1673ffffffffffffffffffffffffffffffffffffffff16815260200190815260200160002060000160016101000a81548160ff02191690831515021790555080600360003373ffffffffffffffffffffffffffffffffffffffff1673ffffffffffffffffffffffffffffffffffffffff1681526020019081526020016000206001019081610a129190611b8d565b50600481604051610a23919061181a565b90815260200160405180910390206000815480929190610a4290611c8e565b91905055507fcb6783276e8a4347387036bbfea000268f0a4b1f8c46ac79980609f2af8d2acd3382604051610a78929190611cd6565b60405180910390a150565b6005818051602081018201805184825260208301602085012081835280955050505050506000915054906101000a900460ff1681565b60008054906101000a900473ffffffffffffffffffffffffffffffffffffffff1673ffffffffffffffffffffffffffffffffffffffff163373ffffffffffffffffffffffffffffffffffffffff1614610b47576040517f08c379a0000000000000000000000000000000000000000000000000000000008152600401610b3e90611539565b60405180910390fd5b610b52600154610e9d565b610b5b42610e9d565b60006001541480610b6d575042600154115b610bac576040517f08c379a0000000000000000000000000000000000000000000000000000000008152600401610ba3906115a5565b60405180910390fd5b600581604051610bbc919061181a565b908152602001604051809103902060009054906101000a900460ff1615610c18576040517f08c379a0000000000000000000000000000000000000000000000000000000008152600401610c0f90611d52565b60405180910390fd5b6001600582604051610c2a919061181a565b908152602001604051809103902060006101000a81548160ff021916908315150217905550600681908060018154018082558091505060019003906000526020600020016000909190919091509081610c839190611b8d565b507fdee39d914d4cdb6b61d44ed337bbfc1bf3fae73b8e1f5193e18ab08bc30f2ae281604051610cb391906110f1565b60405180910390a150565b60025481565b60036020528060005260406000206000915090508060000160009054906101000a900460ff16908060000160019054906101000a900460ff1690806001018054610d0d90611686565b80601f0160208091040260200160405190810160405280929190818152602001828054610d3990611686565b8015610d865780601f10610d5b57610100808354040283529160200191610d86565b820191906000526020600020905b815481529060010190602001808311610d6957829003601f168201915b5050505050905083565b6004818051602081018201805184825260208301602085012081835280955050505050506000915090505481565b60606006805480602002602001604051908101604052809291908181526020016000905b82821015610e8e578382906000526020600020018054610e0190611686565b80601f0160208091040260200160405190810160405280929190818152602001828054610e2d90611686565b8015610e7a5780601f10610e4f57610100808354040283529160200191610e7a565b820191906000526020600020905b815481529060010190602001808311610e5d57829003601f168201915b505050505081526020019060010190610de2565b50505050905090565b60015481565b610f3381604051602401610eb191906112e0565b6040516020818303038152906040527ff82c50f1000000000000000000000000000000000000000000000000000000007bffffffffffffffffffffffffffffffffffffffffffffffffffffffff19166020820180517bffffffffffffffffffffffffffffffffffffffffffffffffffffffff8381831617835250505050610f36565b50565b60008151905060006a636f6e736f6c652e6c6f679050602083016000808483855afa5050505050565b6000604051905090565b600080fd5b600080fd5b600073ffffffffffffffffffffffffffffffffffffffff82169050919050565b6000610f9e82610f73565b9050919050565b610fae81610f93565b8114610fb957600080fd5b50565b600081359050610fcb81610fa5565b92915050565b600060208284031215610fe757610fe6610f69565b5b6000610ff584828501610fbc565b91505092915050565b6000819050919050565b61101181610ffe565b811461101c57600080fd5b50565b60008135905061102e81611008565b92915050565b60006020828403121561104a57611049610f69565b5b60006110588482850161101f565b91505092915050565b600081519050919050565b600082825260208201905092915050565b60005b8381101561109b578082015181840152602081019050611080565b60008484015250505050565b6000601f19601f8301169050919050565b60006110c382611061565b6110cd818561106c565b93506110dd81856020860161107d565b6110e6816110a7565b840191505092915050565b6000602082019050818103600083015261110b81846110b8565b905092915050565b6000806040838503121561112a57611129610f69565b5b60006111388582860161101f565b92505060206111498582860161101f565b9150509250929050565b600080fd5b600080fd5b7f4e487b7100000000000000000000000000000000000000000000000000000000600052604160045260246000fd5b611195826110a7565b810181811067ffffffffffffffff821117156111b4576111b361115d565b5b80604052505050565b60006111c7610f5f565b90506111d3828261118c565b919050565b600067ffffffffffffffff8211156111f3576111f261115d565b5b6111fc826110a7565b9050602081019050919050565b82818337600083830152505050565b600061122b611226846111d8565b6111bd565b90508281526020810184848401111561124757611246611158565b5b611252848285611209565b509392505050565b600082601f83011261126f5761126e611153565b5b813561127f848260208601611218565b91505092915050565b60006020828403121561129e5761129d610f69565b5b600082013567ffffffffffffffff8111156112bc576112bb610f6e565b5b6112c88482850161125a565b91505092915050565b6112da81610ffe565b82525050565b60006020820190506112f560008301846112d1565b92915050565b61130481610f93565b82525050565b600060208201905061131f60008301846112fb565b92915050565b60008115159050919050565b61133a81611325565b82525050565b60006020820190506113556000830184611331565b92915050565b60006060820190506113706000830186611331565b61137d6020830185611331565b818103604083015261138f81846110b8565b9050949350505050565b600081519050919050565b600082825260208201905092915050565b6000819050602082019050919050565b600082825260208201905092915050565b60006113e182611061565b6113eb81856113c5565b93506113fb81856020860161107d565b611404816110a7565b840191505092915050565b600061141b83836113d6565b905092915050565b6000602082019050919050565b600061143b82611399565b61144581856113a4565b935083602082028501611457856113b5565b8060005b858110156114935784840389528151611474858261140f565b945061147f83611423565b925060208a0199505060018101905061145b565b50829750879550505050505092915050565b600060208201905081810360008301526114bf8184611430565b905092915050565b7f4f6e6c79206f776e65722063616e20706572666f726d2074686973206163746960008201527f6f6e000000000000000000000000000000000000000000000000000000000000602082015250565b600061152360228361106c565b915061152e826114c7565b604082019050919050565b6000602082019050818103600083015261155281611516565b9050919050565b7f566f74696e672068617320616c72656164792073746172746564000000000000600082015250565b600061158f601a8361106c565b915061159a82611559565b602082019050919050565b600060208201905081810360008301526115be81611582565b9050919050565b7f54686520766f7465722068617320616c7265616479206265656e20726567697360008201527f74657265642e0000000000000000000000000000000000000000000000000000602082015250565b600061162160268361106c565b915061162c826115c5565b604082019050919050565b6000602082019050818103600083015261165081611614565b9050919050565b7f4e487b7100000000000000000000000000000000000000000000000000000000600052602260045260246000fd5b6000600282049050600182168061169e57607f821691505b6020821081036116b1576116b0611657565b5b50919050565b7f53746172742074696d65206d75737420626520696e2074686520667574757265600082015250565b60006116ed60208361106c565b91506116f8826116b7565b602082019050919050565b6000602082019050818103600083015261171c816116e0565b9050919050565b7f456e642074696d65206d7573742062652061667465722073746172742074696d60008201527f6500000000000000000000000000000000000000000000000000000000000000602082015250565b600061177f60218361106c565b915061178a82611723565b604082019050919050565b600060208201905081810360008301526117ae81611772565b9050919050565b60006040820190506117ca60008301856112d1565b6117d760208301846112d1565b9392505050565b600081905092915050565b60006117f482611061565b6117fe81856117de565b935061180e81856020860161107d565b80840191505092915050565b600061182682846117e9565b915081905092915050565b7f496e76616c6964206f7074696f6e000000000000000000000000000000000000600082015250565b6000611867600e8361106c565b915061187282611831565b602082019050919050565b600060208201905081810360008301526118968161185a565b9050919050565b7f566f74696e67206973206e6f7420696e2070726f67726573732e000000000000600082015250565b60006118d3601a8361106c565b91506118de8261189d565b602082019050919050565b60006020820190508181036000830152611902816118c6565b9050919050565b7f596f7520617265206e6f74207265676973746572656420746f20766f74650000600082015250565b600061193f601e8361106c565b915061194a82611909565b602082019050919050565b6000602082019050818103600083015261196e81611932565b9050919050565b7f596f75206861766520616c7265616479206361737420796f757220766f746500600082015250565b60006119ab601f8361106c565b91506119b682611975565b602082019050919050565b600060208201905081810360008301526119da8161199e565b9050919050565b60008190508160005260206000209050919050565b60006020601f8301049050919050565b600082821b905092915050565b600060088302611a437fffffffffffffffffffffffffffffffffffffffffffffffffffffffffffffffff82611a06565b611a4d8683611a06565b95508019841693508086168417925050509392505050565b6000819050919050565b6000611a8a611a85611a8084610ffe565b611a65565b610ffe565b9050919050565b6000819050919050565b611aa483611a6f565b611ab8611ab082611a91565b848454611a13565b825550505050565b600090565b611acd611ac0565b611ad8818484611a9b565b505050565b5b81811015611afc57611af1600082611ac5565b600181019050611ade565b5050565b601f821115611b4157611b12816119e1565b611b1b846119f6565b81016020851015611b2a578190505b611b3e611b36856119f6565b830182611add565b50505b505050565b600082821c905092915050565b6000611b6460001984600802611b46565b1980831691505092915050565b6000611b7d8383611b53565b9150826002028217905092915050565b611b9682611061565b67ffffffffffffffff811115611baf57611bae61115d565b5b611bb98254611686565b611bc4828285611b00565b600060209050601f831160018114611bf75760008415611be5578287015190505b611bef8582611b71565b865550611c57565b601f198416611c05866119e1565b60005b82811015611c2d57848901518255600182019150602085019450602081019050611c08565b86831015611c4a5784890151611c46601f891682611b53565b8355505b6001600288020188555050505b505050505050565b7f4e487b7100000000000000000000000000000000000000000000000000000000600052601160045260246000fd5b6000611c9982610ffe565b91507fffffffffffffffffffffffffffffffffffffffffffffffffffffffffffffffff8203611ccb57611cca611c5f565b5b600182019050919050565b6000604082019050611ceb60008301856112fb565b8181036020830152611cfd81846110b8565b90509392505050565b7f4f7074696f6e2068617320616c72656164792072656769737465726564000000600082015250565b6000611d3c601d8361106c565b9150611d4782611d06565b602082019050919050565b60006020820190508181036000830152611d6b81611d2f565b905091905056fea2646970667358221220cab7d4baceb2844ef882f55181bf06106cdf1766923651c0d16ff342a57158ff64736f6c63430008110033",
    "linkReferences": {},
    "deployedLinkReferences": {}
}